{
  "contractName": "VendingMachine",
  "abi": [
    {
      "constant": false,
      "inputs": [
        {
          "name": "account",
          "type": "address"
        }
      ],
      "name": "addWhitelisted",
      "outputs": [],
      "payable": false,
      "stateMutability": "nonpayable",
      "type": "function"
    },
    {
      "constant": false,
      "inputs": [
        {
          "name": "account",
          "type": "address"
        }
      ],
      "name": "removeAdmin",
      "outputs": [],
      "payable": false,
      "stateMutability": "nonpayable",
      "type": "function"
    },
    {
      "constant": true,
      "inputs": [
        {
          "name": "account",
          "type": "address"
        }
      ],
      "name": "isAdmin",
      "outputs": [
        {
          "name": "",
          "type": "bool"
        }
      ],
      "payable": false,
      "stateMutability": "view",
      "type": "function"
    },
    {
      "constant": true,
      "inputs": [
        {
          "name": "",
          "type": "address"
        }
      ],
      "name": "vendors",
      "outputs": [
        {
          "name": "name",
          "type": "bytes32"
        },
        {
          "name": "isActive",
          "type": "bool"
        },
        {
          "name": "isAllowed",
          "type": "bool"
        },
        {
          "name": "exists",
          "type": "bool"
        }
      ],
      "payable": false,
      "stateMutability": "view",
      "type": "function"
    },
    {
      "constant": false,
      "inputs": [
        {
          "name": "account",
          "type": "address"
        }
      ],
      "name": "removeWhitelisted",
      "outputs": [],
      "payable": false,
      "stateMutability": "nonpayable",
      "type": "function"
    },
    {
      "constant": true,
      "inputs": [],
      "name": "superAdmin",
      "outputs": [
        {
          "name": "",
          "type": "address"
        }
      ],
      "payable": false,
      "stateMutability": "view",
      "type": "function"
    },
    {
      "constant": true,
      "inputs": [
        {
          "name": "account",
          "type": "address"
        }
      ],
      "name": "isWhitelisted",
      "outputs": [
        {
          "name": "",
          "type": "bool"
        }
      ],
      "payable": false,
      "stateMutability": "view",
      "type": "function"
    },
    {
      "constant": true,
      "inputs": [
        {
          "name": "",
          "type": "address"
        }
      ],
      "name": "allowance",
      "outputs": [
        {
          "name": "",
          "type": "uint256"
        }
      ],
      "payable": false,
      "stateMutability": "view",
      "type": "function"
    },
    {
      "constant": true,
      "inputs": [],
      "name": "tokenContract",
      "outputs": [
        {
          "name": "",
          "type": "address"
        }
      ],
      "payable": false,
      "stateMutability": "view",
      "type": "function"
    },
    {
      "constant": false,
      "inputs": [
        {
          "name": "account",
          "type": "address"
        }
      ],
      "name": "addAdmin",
      "outputs": [],
      "payable": false,
      "stateMutability": "nonpayable",
      "type": "function"
    },
    {
      "constant": false,
      "inputs": [],
      "name": "renounceAdmin",
      "outputs": [],
      "payable": false,
      "stateMutability": "nonpayable",
      "type": "function"
    },
    {
      "constant": false,
      "inputs": [],
      "name": "renounceWhitelisted",
      "outputs": [],
      "payable": false,
      "stateMutability": "nonpayable",
      "type": "function"
    },
    {
      "constant": true,
      "inputs": [
        {
          "name": "account",
          "type": "address"
        }
      ],
      "name": "isSuperAdmin",
      "outputs": [
        {
          "name": "",
          "type": "bool"
        }
      ],
      "payable": false,
      "stateMutability": "view",
      "type": "function"
    },
    {
      "constant": true,
      "inputs": [
        {
          "name": "",
          "type": "address"
        },
        {
          "name": "",
          "type": "uint256"
        }
      ],
      "name": "products",
      "outputs": [
        {
          "name": "id",
          "type": "uint256"
        },
        {
          "name": "cost",
          "type": "uint256"
        },
        {
          "name": "name",
          "type": "bytes32"
        },
        {
          "name": "exists",
          "type": "bool"
        },
        {
          "name": "isAvailable",
          "type": "bool"
        }
      ],
      "payable": false,
      "stateMutability": "view",
      "type": "function"
    },
    {
      "payable": true,
      "stateMutability": "payable",
      "type": "fallback"
    },
    {
      "anonymous": false,
      "inputs": [
        {
          "indexed": true,
          "name": "depositor",
          "type": "address"
        },
        {
          "indexed": false,
          "name": "amount",
          "type": "uint256"
        }
      ],
      "name": "Deposit",
      "type": "event"
    },
    {
      "anonymous": false,
      "inputs": [
        {
          "indexed": true,
          "name": "withdrawer",
          "type": "address"
        },
        {
          "indexed": false,
          "name": "amount",
          "type": "uint256"
        }
      ],
      "name": "Withdraw",
      "type": "event"
    },
    {
      "anonymous": false,
      "inputs": [
        {
          "indexed": true,
          "name": "vendor",
          "type": "address"
        },
        {
          "indexed": false,
          "name": "name",
          "type": "bytes32"
        },
        {
          "indexed": false,
          "name": "isActive",
          "type": "bool"
        },
        {
          "indexed": false,
          "name": "isAllowed",
          "type": "bool"
        },
        {
          "indexed": false,
          "name": "sender",
          "type": "address"
        }
      ],
      "name": "UpdateVendor",
      "type": "event"
    },
    {
      "anonymous": false,
      "inputs": [
        {
          "indexed": true,
          "name": "vendor",
          "type": "address"
        },
        {
          "indexed": false,
          "name": "id",
          "type": "uint256"
        },
        {
          "indexed": false,
          "name": "cost",
          "type": "uint256"
        },
        {
          "indexed": false,
          "name": "name",
          "type": "bytes32"
        },
        {
          "indexed": false,
          "name": "isAvailable",
          "type": "bool"
        }
      ],
      "name": "AddProduct",
      "type": "event"
    },
    {
      "anonymous": false,
      "inputs": [
        {
          "indexed": true,
          "name": "account",
          "type": "address"
        }
      ],
      "name": "WhitelistedAdded",
      "type": "event"
    },
    {
      "anonymous": false,
      "inputs": [
        {
          "indexed": true,
          "name": "account",
          "type": "address"
        }
      ],
      "name": "WhitelistedRemoved",
      "type": "event"
    },
    {
      "anonymous": false,
      "inputs": [
        {
          "indexed": true,
          "name": "account",
          "type": "address"
        }
      ],
      "name": "AdminAdded",
      "type": "event"
    },
    {
      "anonymous": false,
      "inputs": [
        {
          "indexed": true,
          "name": "account",
          "type": "address"
        }
      ],
      "name": "AdminRemoved",
      "type": "event"
    },
    {
      "constant": false,
      "inputs": [],
      "name": "initialize",
      "outputs": [],
      "payable": false,
      "stateMutability": "nonpayable",
      "type": "function"
    },
    {
      "constant": false,
      "inputs": [
        {
          "name": "_tokenContract",
          "type": "address"
        }
      ],
      "name": "initialize",
      "outputs": [],
      "payable": false,
      "stateMutability": "nonpayable",
      "type": "function"
    },
    {
      "constant": false,
      "inputs": [],
      "name": "deposit",
      "outputs": [],
      "payable": true,
      "stateMutability": "payable",
      "type": "function"
    },
    {
      "constant": false,
      "inputs": [
        {
          "name": "account",
          "type": "address"
        },
        {
          "name": "amount",
          "type": "uint256"
        }
      ],
      "name": "addAllowance",
      "outputs": [],
      "payable": false,
      "stateMutability": "nonpayable",
      "type": "function"
    },
    {
      "constant": false,
      "inputs": [
        {
          "name": "amount",
          "type": "uint256"
        }
      ],
      "name": "withdraw",
      "outputs": [],
      "payable": false,
      "stateMutability": "nonpayable",
      "type": "function"
    },
    {
      "constant": false,
      "inputs": [
        {
          "name": "amount",
          "type": "uint256"
        }
      ],
      "name": "sweep",
      "outputs": [],
      "payable": false,
      "stateMutability": "nonpayable",
      "type": "function"
    },
    {
      "constant": false,
      "inputs": [
        {
          "name": "id",
          "type": "uint256"
        },
        {
          "name": "name",
          "type": "bytes32"
        },
        {
          "name": "cost",
          "type": "uint256"
        },
        {
          "name": "isAvailable",
          "type": "bool"
        }
      ],
      "name": "addProduct",
      "outputs": [],
      "payable": false,
      "stateMutability": "nonpayable",
      "type": "function"
    },
    {
      "constant": false,
      "inputs": [
        {
          "name": "_vendorAddress",
          "type": "address"
        },
        {
          "name": "_name",
          "type": "bytes32"
        }
      ],
      "name": "addVendor",
      "outputs": [],
      "payable": false,
      "stateMutability": "nonpayable",
      "type": "function"
    },
    {
      "constant": false,
      "inputs": [
        {
          "name": "_isActive",
          "type": "bool"
        }
      ],
      "name": "activateVendor",
      "outputs": [],
      "payable": false,
      "stateMutability": "nonpayable",
      "type": "function"
    },
    {
      "constant": false,
      "inputs": [
        {
          "name": "_vendorAddress",
          "type": "address"
        },
        {
          "name": "_name",
          "type": "bytes32"
        },
        {
          "name": "_isActive",
          "type": "bool"
        },
        {
          "name": "_isAllowed",
          "type": "bool"
        }
      ],
      "name": "updateVendor",
      "outputs": [],
      "payable": false,
      "stateMutability": "nonpayable",
      "type": "function"
    }
  ],
  "bytecode": "0x608060405234801561001057600080fd5b50611f48806100206000396000f3fe60806040526004361061013e576000357c0100000000000000000000000000000000000000000000000000000000900463ffffffff16806310154bad1461014857806312a8301d146101995780631785f53c146101f457806324d7806c1461024557806327e30c36146102ae578063291d95491461033457806329575f6a146103855780632e1a7d4d146103dc5780633af32abf146104175780633e5beab9146104805780634470e009146104e557806355a373d61461055857806370480275146105af5780638129fc1c146106005780638bad0c0a146106175780638f9638271461062e578063a48cb38414610689578063aa60e733146106c6578063c4d66de814610701578063d0e30db014610752578063d6cd94731461075c578063df7f453b14610773578063f3c40c4b146107dc578063fc64094914610837575b6101466108ca565b005b34801561015457600080fd5b506101976004803603602081101561016b57600080fd5b81019080803573ffffffffffffffffffffffffffffffffffffffff169060200190929190505050610a25565b005b3480156101a557600080fd5b506101f2600480360360408110156101bc57600080fd5b81019080803573ffffffffffffffffffffffffffffffffffffffff16906020019092919080359060200190929190505050610a45565b005b34801561020057600080fd5b506102436004803603602081101561021757600080fd5b81019080803573ffffffffffffffffffffffffffffffffffffffff169060200190929190505050610c28565b005b34801561025157600080fd5b506102946004803603602081101561026857600080fd5b81019080803573ffffffffffffffffffffffffffffffffffffffff169060200190929190505050610c48565b604051808215151515815260200191505060405180910390f35b3480156102ba57600080fd5b506102fd600480360360208110156102d157600080fd5b81019080803573ffffffffffffffffffffffffffffffffffffffff169060200190929190505050610c65565b6040518085815260200184151515158152602001831515151581526020018215151515815260200194505050505060405180910390f35b34801561034057600080fd5b506103836004803603602081101561035757600080fd5b81019080803573ffffffffffffffffffffffffffffffffffffffff169060200190929190505050610cbc565b005b34801561039157600080fd5b5061039a610cdc565b604051808273ffffffffffffffffffffffffffffffffffffffff1673ffffffffffffffffffffffffffffffffffffffff16815260200191505060405180910390f35b3480156103e857600080fd5b50610415600480360360208110156103ff57600080fd5b8101908080359060200190929190505050610d02565b005b34801561042357600080fd5b506104666004803603602081101561043a57600080fd5b81019080803573ffffffffffffffffffffffffffffffffffffffff169060200190929190505050610e0e565b604051808215151515815260200191505060405180910390f35b34801561048c57600080fd5b506104cf600480360360208110156104a357600080fd5b81019080803573ffffffffffffffffffffffffffffffffffffffff169060200190929190505050610e2b565b6040518082815260200191505060405180910390f35b3480156104f157600080fd5b506105566004803603608081101561050857600080fd5b81019080803573ffffffffffffffffffffffffffffffffffffffff16906020019092919080359060200190929190803515159060200190929190803515159060200190929190505050610e43565b005b34801561056457600080fd5b5061056d610e69565b604051808273ffffffffffffffffffffffffffffffffffffffff1673ffffffffffffffffffffffffffffffffffffffff16815260200191505060405180910390f35b3480156105bb57600080fd5b506105fe600480360360208110156105d257600080fd5b81019080803573ffffffffffffffffffffffffffffffffffffffff169060200190929190505050610e8f565b005b34801561060c57600080fd5b50610615610eaf565b005b34801561062357600080fd5b5061062c61102e565b005b34801561063a57600080fd5b506106876004803603608081101561065157600080fd5b81019080803590602001909291908035906020019092919080359060200190929190803515159060200190929190505050611039565b005b34801561069557600080fd5b506106c4600480360360208110156106ac57600080fd5b81019080803515159060200190929190505050611271565b005b3480156106d257600080fd5b506106ff600480360360208110156106e957600080fd5b8101908080359060200190929190505050611311565b005b34801561070d57600080fd5b506107506004803603602081101561072457600080fd5b81019080803573ffffffffffffffffffffffffffffffffffffffff16906020019092919050505061136f565b005b61075a6108ca565b005b34801561076857600080fd5b506107716114e6565b005b34801561077f57600080fd5b506107c26004803603602081101561079657600080fd5b81019080803573ffffffffffffffffffffffffffffffffffffffff1690602001909291905050506114f1565b604051808215151515815260200191505060405180910390f35b3480156107e857600080fd5b50610835600480360360408110156107ff57600080fd5b81019080803573ffffffffffffffffffffffffffffffffffffffff1690602001909291908035906020019092919050505061154b565b005b34801561084357600080fd5b506108906004803603604081101561085a57600080fd5b81019080803573ffffffffffffffffffffffffffffffffffffffff1690602001909291908035906020019092919050505061156d565b6040518086815260200185815260200184815260200183151515158152602001821515151581526020019550505050505060405180910390f35b6108d433346115ca565b603660009054906101000a900473ffffffffffffffffffffffffffffffffffffffff1673ffffffffffffffffffffffffffffffffffffffff166340c10f1933346040518363ffffffff167c0100000000000000000000000000000000000000000000000000000000028152600401808373ffffffffffffffffffffffffffffffffffffffff1673ffffffffffffffffffffffffffffffffffffffff16815260200182815260200192505050602060405180830381600087803b15801561099957600080fd5b505af11580156109ad573d6000803e3d6000fd5b505050506040513d60208110156109c357600080fd5b8101908080519060200190929190505050503373ffffffffffffffffffffffffffffffffffffffff167fe1fffcc4923d04b559f4d29a8bfc6cda04eb5b0d3c460751c2402c5c5cc9109c346040518082815260200191505060405180910390a2565b610a2e33610c48565b1515610a3957600080fd5b610a4281611663565b50565b610a4e33610c48565b1515610a5957600080fd5b603860008373ffffffffffffffffffffffffffffffffffffffff1673ffffffffffffffffffffffffffffffffffffffff16815260200190815260200160002060010160029054906101000a900460ff16151515610b44576040517f08c379a00000000000000000000000000000000000000000000000000000000081526004018080602001828103825260218152602001807f54686973206164647265737320616c726561647920697320612076656e646f7281526020017f2e0000000000000000000000000000000000000000000000000000000000000081525060400191505060405180910390fd5b60806040519081016040528082815260200160001515815260200160011515815260200160011515815250603860008473ffffffffffffffffffffffffffffffffffffffff1673ffffffffffffffffffffffffffffffffffffffff1681526020019081526020016000206000820151816000015560208201518160010160006101000a81548160ff02191690831515021790555060408201518160010160016101000a81548160ff02191690831515021790555060608201518160010160026101000a81548160ff021916908315150217905550905050610c24826116bd565b5050565b610c31336114f1565b1515610c3c57600080fd5b610c458161183a565b50565b6000610c5e82603361189490919063ffffffff16565b9050919050565b60386020528060005260406000206000915090508060000154908060010160009054906101000a900460ff16908060010160019054906101000a900460ff16908060010160029054906101000a900460ff16905084565b610cc533610c48565b1515610cd057600080fd5b610cd981611928565b50565b603460009054906101000a900473ffffffffffffffffffffffffffffffffffffffff1681565b610d0b33610e0e565b15610d1e57610d1981611982565b610e0b565b603760003373ffffffffffffffffffffffffffffffffffffffff1673ffffffffffffffffffffffffffffffffffffffff168152602001908152602001600020548111151515610d6c57600080fd5b610dbe81603760003373ffffffffffffffffffffffffffffffffffffffff1673ffffffffffffffffffffffffffffffffffffffff16815260200190815260200160002054611b1b90919063ffffffff16565b603760003373ffffffffffffffffffffffffffffffffffffffff1673ffffffffffffffffffffffffffffffffffffffff16815260200190815260200160002081905550610e0a81611982565b5b50565b6000610e2482603561189490919063ffffffff16565b9050919050565b60376020528060005260406000206000915090505481565b610e4c33610c48565b1515610e5757600080fd5b610e6384848484611b3d565b50505050565b603660009054906101000a900473ffffffffffffffffffffffffffffffffffffffff1681565b610e98336114f1565b1515610ea357600080fd5b610eac81611d31565b50565b600060019054906101000a900460ff1680610ece5750610ecd611d8b565b5b80610ee557506000809054906101000a900460ff16155b1515610f7f576040517f08c379a000000000000000000000000000000000000000000000000000000000815260040180806020018281038252602e8152602001807f436f6e747261637420696e7374616e63652068617320616c726561647920626581526020017f656e20696e697469616c697a656400000000000000000000000000000000000081525060400191505060405180910390fd5b60008060019054906101000a900460ff1690506001600060016101000a81548160ff02191690831515021790555060016000806101000a81548160ff021916908315150217905550610fd033611d31565b33603460006101000a81548173ffffffffffffffffffffffffffffffffffffffff021916908373ffffffffffffffffffffffffffffffffffffffff16021790555080600060016101000a81548160ff02191690831515021790555050565b6110373361183a565b565b603860003373ffffffffffffffffffffffffffffffffffffffff1673ffffffffffffffffffffffffffffffffffffffff16815260200190815260200160002060010160019054906101000a900460ff161515611123576040517f08c379a000000000000000000000000000000000000000000000000000000000815260040180806020018281038252603b8152602001807f56656e64696e674d616368696e653a3a61646450726f64756374202d2076656e81526020017f646f72206973206e6f7420616c6c6f7765642062792061646d696e000000000081525060400191505060405180910390fd5b60a060405190810160405280858152602001838152602001848152602001600115158152602001821515815250603960003373ffffffffffffffffffffffffffffffffffffffff1673ffffffffffffffffffffffffffffffffffffffff168152602001908152602001600020600086815260200190815260200160002060008201518160000155602082015181600101556040820151816002015560608201518160030160006101000a81548160ff02191690831515021790555060808201518160030160016101000a81548160ff0219169083151502179055509050503373ffffffffffffffffffffffffffffffffffffffff167f2eadf241bd1e8860e525a94ff32ae2763802c7e7dec0c43a1211685e00c3e6a485848685604051808581526020018481526020018381526020018215151515815260200194505050505060405180910390a250505050565b61130e33603860003373ffffffffffffffffffffffffffffffffffffffff1673ffffffffffffffffffffffffffffffffffffffff1681526020019081526020016000206000015483603860003373ffffffffffffffffffffffffffffffffffffffff1673ffffffffffffffffffffffffffffffffffffffff16815260200190815260200160002060010160019054906101000a900460ff16611b3d565b50565b61131a336114f1565b151561132557600080fd5b3373ffffffffffffffffffffffffffffffffffffffff166108fc829081150290604051600060405180830381858888f1935050505015801561136b573d6000803e3d6000fd5b5050565b600060019054906101000a900460ff168061138e575061138d611d8b565b5b806113a557506000809054906101000a900460ff16155b151561143f576040517f08c379a000000000000000000000000000000000000000000000000000000000815260040180806020018281038252602e8152602001807f436f6e747261637420696e7374616e63652068617320616c726561647920626581526020017f656e20696e697469616c697a656400000000000000000000000000000000000081525060400191505060405180910390fd5b60008060019054906101000a900460ff1690506001600060016101000a81548160ff02191690831515021790555060016000806101000a81548160ff02191690831515021790555081603660006101000a81548173ffffffffffffffffffffffffffffffffffffffff021916908373ffffffffffffffffffffffffffffffffffffffff16021790555080600060016101000a81548160ff0219169083151502179055505050565b6114ef33611928565b565b6000603460009054906101000a900473ffffffffffffffffffffffffffffffffffffffff1673ffffffffffffffffffffffffffffffffffffffff168273ffffffffffffffffffffffffffffffffffffffff16149050919050565b61155433610c48565b151561155f57600080fd5b61156982826115ca565b5050565b6039602052816000526040600020602052806000526040600020600091509150508060000154908060010154908060020154908060030160009054906101000a900460ff16908060030160019054906101000a900460ff16905085565b61161c81603760008573ffffffffffffffffffffffffffffffffffffffff1673ffffffffffffffffffffffffffffffffffffffff16815260200190815260200160002054611d9c90919063ffffffff16565b603760008473ffffffffffffffffffffffffffffffffffffffff1673ffffffffffffffffffffffffffffffffffffffff168152602001908152602001600020819055505050565b611677816035611dbd90919063ffffffff16565b8073ffffffffffffffffffffffffffffffffffffffff167fee1504a83b6d4a361f4c1dc78ab59bfa30d6a3b6612c403e86bb01ef2984295f60405160405180910390a250565b8073ffffffffffffffffffffffffffffffffffffffff167f7fbb0b3e6c9fcf18124898a7f3013ce656e7f8ebc02b6f53cbaf2082bfe797e7603860008473ffffffffffffffffffffffffffffffffffffffff1673ffffffffffffffffffffffffffffffffffffffff16815260200190815260200160002060000154603860008573ffffffffffffffffffffffffffffffffffffffff1673ffffffffffffffffffffffffffffffffffffffff16815260200190815260200160002060010160009054906101000a900460ff16603860008673ffffffffffffffffffffffffffffffffffffffff1673ffffffffffffffffffffffffffffffffffffffff16815260200190815260200160002060010160019054906101000a900460ff16336040518085815260200184151515158152602001831515151581526020018273ffffffffffffffffffffffffffffffffffffffff1673ffffffffffffffffffffffffffffffffffffffff16815260200194505050505060405180910390a250565b61184e816033611e6d90919063ffffffff16565b8073ffffffffffffffffffffffffffffffffffffffff167fa3b62bc36326052d97ea62d63c3d60308ed4c3ea8ac079dd8499f1e9c4f80c0f60405160405180910390a250565b60008073ffffffffffffffffffffffffffffffffffffffff168273ffffffffffffffffffffffffffffffffffffffff16141515156118d157600080fd5b8260000160008373ffffffffffffffffffffffffffffffffffffffff1673ffffffffffffffffffffffffffffffffffffffff16815260200190815260200160002060009054906101000a900460ff16905092915050565b61193c816035611e6d90919063ffffffff16565b8073ffffffffffffffffffffffffffffffffffffffff167f270d9b30cf5b0793bbfd54c9d5b94aeb49462b8148399000265144a8722da6b660405160405180910390a250565b603660009054906101000a900473ffffffffffffffffffffffffffffffffffffffff1673ffffffffffffffffffffffffffffffffffffffff16639dc29fac33836040518363ffffffff167c0100000000000000000000000000000000000000000000000000000000028152600401808373ffffffffffffffffffffffffffffffffffffffff1673ffffffffffffffffffffffffffffffffffffffff16815260200182815260200192505050602060405180830381600087803b158015611a4757600080fd5b505af1158015611a5b573d6000803e3d6000fd5b505050506040513d6020811015611a7157600080fd5b8101908080519060200190929190505050503373ffffffffffffffffffffffffffffffffffffffff166108fc829081150290604051600060405180830381858888f19350505050158015611ac9573d6000803e3d6000fd5b503373ffffffffffffffffffffffffffffffffffffffff167f884edad9ce6fa2440d8a54cc123490eb96d2768479d49ff9c7366125a9424364826040518082815260200191505060405180910390a250565b6000828211151515611b2c57600080fd5b600082840390508091505092915050565b603860008573ffffffffffffffffffffffffffffffffffffffff1673ffffffffffffffffffffffffffffffffffffffff16815260200190815260200160002060010160029054906101000a900460ff161515611c27576040517f08c379a00000000000000000000000000000000000000000000000000000000081526004018080602001828103825260238152602001807f43616e6e6f74207570646174652061206e6f6e2d6578697374656e742076656e81526020017f646f72000000000000000000000000000000000000000000000000000000000081525060400191505060405180910390fd5b82603860008673ffffffffffffffffffffffffffffffffffffffff1673ffffffffffffffffffffffffffffffffffffffff1681526020019081526020016000206000018190555081603860008673ffffffffffffffffffffffffffffffffffffffff1673ffffffffffffffffffffffffffffffffffffffff16815260200190815260200160002060010160006101000a81548160ff02191690831515021790555080603860008673ffffffffffffffffffffffffffffffffffffffff1673ffffffffffffffffffffffffffffffffffffffff16815260200190815260200160002060010160016101000a81548160ff021916908315150217905550611d2b846116bd565b50505050565b611d45816033611dbd90919063ffffffff16565b8073ffffffffffffffffffffffffffffffffffffffff167f44d6d25963f097ad14f29f06854a01f575648a1ef82f30e562ccd3889717e33960405160405180910390a250565b600080303b90506000811491505090565b6000808284019050838110151515611db357600080fd5b8091505092915050565b600073ffffffffffffffffffffffffffffffffffffffff168173ffffffffffffffffffffffffffffffffffffffff1614151515611df957600080fd5b611e038282611894565b151515611e0f57600080fd5b60018260000160008373ffffffffffffffffffffffffffffffffffffffff1673ffffffffffffffffffffffffffffffffffffffff16815260200190815260200160002060006101000a81548160ff0219169083151502179055505050565b600073ffffffffffffffffffffffffffffffffffffffff168173ffffffffffffffffffffffffffffffffffffffff1614151515611ea957600080fd5b611eb38282611894565b1515611ebe57600080fd5b60008260000160008373ffffffffffffffffffffffffffffffffffffffff1673ffffffffffffffffffffffffffffffffffffffff16815260200190815260200160002060006101000a81548160ff021916908315150217905550505056fea165627a7a7230582081fabc86ddc71aa7ac71d8cc708be22dfd59c7afc10b3ece8e78eb22a88775e30029",
  "source": "pragma solidity 0.5.0;\n\nimport \"zos-lib/contracts/Initializable.sol\";\nimport \"openzeppelin-solidity/contracts/access/Roles.sol\";\nimport \"contracts/ERC20Edai.sol\";\n\ncontract AdminRole is Initializable {\n    using Roles for Roles.Role;\n\n    event AdminAdded(address indexed account);\n    event AdminRemoved(address indexed account);\n\n    Roles.Role private admins;\n    address public superAdmin;\n\n    function initialize() initializer public {\n        _addAdmin(msg.sender);\n        superAdmin = msg.sender;\n    }\n\n    modifier onlyAdmin() {\n        require(isAdmin(msg.sender));\n        _;\n    }\n\n    modifier onlySuperAdmin() {\n        require(isSuperAdmin(msg.sender));\n        _;\n    }\n\n    function isAdmin(address account) public view returns (bool) {\n        return admins.has(account);\n    }\n\n    function isSuperAdmin(address account) public view returns (bool) {\n        return account == superAdmin;\n    }\n\n    function addAdmin(address account) public onlySuperAdmin {\n        _addAdmin(account);\n    }\n\n    function removeAdmin(address account) public onlySuperAdmin {\n        _removeAdmin(account);\n    }\n\n    function renounceAdmin() public {\n        _removeAdmin(msg.sender);\n    }\n\n    function _addAdmin(address account) internal {\n        admins.add(account);\n        emit AdminAdded(account);\n    }\n\n    function _removeAdmin(address account) internal {\n        admins.remove(account);\n        emit AdminRemoved(account);\n    }\n}\n\ncontract WhitelistedRole is Initializable, AdminRole {\n    using Roles for Roles.Role;\n\n    event WhitelistedAdded(address indexed account);\n    event WhitelistedRemoved(address indexed account);\n\n    Roles.Role private _whitelisteds;\n\n    modifier onlyWhitelisted() {\n        require(isWhitelisted(msg.sender));\n        _;\n    }\n\n    function isWhitelisted(address account) public view returns (bool) {\n        return _whitelisteds.has(account);\n    }\n\n    function addWhitelisted(address account) public onlyAdmin {\n        _addWhitelisted(account);\n    }\n\n    function removeWhitelisted(address account) public onlyAdmin {\n        _removeWhitelisted(account);\n    }\n\n    function renounceWhitelisted() public {\n        _removeWhitelisted(msg.sender);\n    }\n\n    function _addWhitelisted(address account) internal {\n        _whitelisteds.add(account);\n        emit WhitelistedAdded(account);\n    }\n\n    function _removeWhitelisted(address account) internal {\n        _whitelisteds.remove(account);\n        emit WhitelistedRemoved(account);\n    }\n}\n\ncontract VendingMachine is Initializable, AdminRole, WhitelistedRole {\n    using SafeMath for uint256;\n\n    ERC20Edai public tokenContract;\n    mapping (address => uint256) public allowance;\n\n    event Deposit(address indexed depositor, uint amount);\n    event Withdraw(address indexed withdrawer, uint amount);\n\n    function initialize(address _tokenContract) initializer public {\n        tokenContract = ERC20Edai(_tokenContract);\n    }\n\n    //Fallback. Just send currency here to deposit\n    function () external payable {\n        deposit();\n    }\n\n    /**\n    * @dev Deposit currency in order to buy tokens from the ERC20Contract\n    * Will buy tokens at a 1-to-1 ratio. User will also be given an allowance to withdraw the same amount.\n    */\n    function deposit() public payable {\n        _addAllowance(msg.sender, msg.value);\n\n        tokenContract.mint(msg.sender, msg.value);\n        emit Deposit(msg.sender, msg.value);\n    }\n\n    /**\n    * @dev Admin hook to increment an account's withdraw allowance.\n    * Could be useful if they don't want to give the user unlimited withdraw by whitelisting them\n    * @param account The address to receive the increased allowance.\n    * @param amount The amount to increase the allowance\n    */\n    function addAllowance(address account, uint256 amount) public onlyAdmin {\n        _addAllowance(account, amount);\n    }\n\n    function _addAllowance(address account, uint256 amount) private {\n        allowance[account] = allowance[account].add(amount);\n    }\n\n    function withdraw(uint256 amount) public {\n        if(isWhitelisted(msg.sender)) {\n            _withdraw(amount);\n        } else {\n            require(amount <= allowance[msg.sender]);\n            allowance[msg.sender] = allowance[msg.sender].sub(amount);\n            _withdraw(amount);\n        }\n    }\n\n    function _withdraw(uint256 amount) private {\n        tokenContract.burn(msg.sender, amount);\n        msg.sender.transfer(amount);\n        emit Withdraw(msg.sender, amount);\n    }\n\n    function sweep(uint256 amount) public onlySuperAdmin {\n        msg.sender.transfer(amount);\n    }\n\n    //*****************  Product/Vendor related code *******************//\n\n    mapping (address => Vendor) public vendors;\n    mapping (address => mapping (uint256 => Product)) public products;\n\n    event UpdateVendor(address indexed vendor, bytes32 name, bool isActive, bool isAllowed, address sender);\n    event AddProduct(address indexed vendor, uint256 id, uint256 cost, bytes32 name, bool isAvailable);\n\n    struct Vendor {\n        bytes32 name;\n        bool isActive; //let's vendor indicate if they are open at the time\n        bool isAllowed; //let's admin turn them off,\n        bool exists;\n    }\n\n    struct Product {\n        uint256 id;\n        uint256 cost;\n        bytes32 name;\n        bool exists;\n        bool isAvailable;\n    }\n\n    function addProduct(uint256 id, bytes32 name, uint256 cost, bool isAvailable) public {\n        require(vendors[msg.sender].isAllowed, \"VendingMachine::addProduct - vendor is not allowed by admin\");\n        products[msg.sender][id] = Product({\n            id: id,\n            cost: cost,\n            name: name,\n            exists: true,\n            isAvailable: isAvailable\n            });\n\n        emit AddProduct(msg.sender, id, cost, name, isAvailable);\n    }\n\n    function addVendor(address _vendorAddress, bytes32 _name) public onlyAdmin {\n        require(!vendors[_vendorAddress].exists, \"This address already is a vendor.\");\n\n        vendors[_vendorAddress] = Vendor({\n            name: _name,\n            isActive: false,\n            isAllowed: true,\n            exists: true\n            });\n\n        _emitUpdateVendor(_vendorAddress);\n    }\n\n    function activateVendor(bool _isActive) public {\n        //Existing vendor check happens in _updateVendor. No need to do it here\n        _updateVendor(\n            msg.sender,\n            vendors[msg.sender].name,\n            _isActive,\n            vendors[msg.sender].isAllowed\n        );\n    }\n\n    function updateVendor(address _vendorAddress, bytes32 _name, bool _isActive, bool _isAllowed) public onlyAdmin {\n        _updateVendor(_vendorAddress, _name, _isActive, _isAllowed);\n    }\n\n    function _updateVendor(address _vendorAddress, bytes32 _name, bool _isActive, bool _isAllowed) private {\n        require(vendors[_vendorAddress].exists, \"Cannot update a non-existent vendor\");\n\n        vendors[_vendorAddress].name = _name;\n        vendors[_vendorAddress].isActive = _isActive;\n        vendors[_vendorAddress].isAllowed = _isAllowed;\n\n        _emitUpdateVendor(_vendorAddress);\n    }\n\n    function _emitUpdateVendor(address _vendorAddress) private {\n        emit UpdateVendor(\n            _vendorAddress,\n            vendors[_vendorAddress].name,\n            vendors[_vendorAddress].isActive,\n            vendors[_vendorAddress].isAllowed,\n            msg.sender\n        );\n    }\n}\n",
  "sourcePath": "/Users/alfonso/repositories/blockchain/edai/contracts/VendingMachine.sol",
  "compiler": {
    "name": "solc",
    "version": "0.5.0+commit.1d4f565a.Emscripten.clang"
  },
  "schemaVersion": "3.0.2",
  "updatedAt": "2019-02-16T01:46:24.126Z",
  "devdoc": {
    "methods": {
      "addAllowance(address,uint256)": {
        "details": "Admin hook to increment an account's withdraw allowance. Could be useful if they don't want to give the user unlimited withdraw by whitelisting them",
        "params": {
          "account": "The address to receive the increased allowance.",
          "amount": "The amount to increase the allowance"
        }
      },
      "deposit()": {
        "details": "Deposit currency in order to buy tokens from the ERC20Contract Will buy tokens at a 1-to-1 ratio. User will also be given an allowance to withdraw the same amount."
      }
    }
  },
  "userdoc": {
    "methods": {}
  }
}