{
  "contractName": "WhitelistedRole",
  "abi": [
    {
      "constant": false,
      "inputs": [
        {
          "name": "account",
          "type": "address"
        }
      ],
      "name": "removeAdmin",
      "outputs": [],
      "payable": false,
      "stateMutability": "nonpayable",
      "type": "function"
    },
    {
      "constant": true,
      "inputs": [
        {
          "name": "account",
          "type": "address"
        }
      ],
      "name": "isAdmin",
      "outputs": [
        {
          "name": "",
          "type": "bool"
        }
      ],
      "payable": false,
      "stateMutability": "view",
      "type": "function"
    },
    {
      "constant": true,
      "inputs": [],
      "name": "superAdmin",
      "outputs": [
        {
          "name": "",
          "type": "address"
        }
      ],
      "payable": false,
      "stateMutability": "view",
      "type": "function"
    },
    {
      "constant": false,
      "inputs": [
        {
          "name": "account",
          "type": "address"
        }
      ],
      "name": "addAdmin",
      "outputs": [],
      "payable": false,
      "stateMutability": "nonpayable",
      "type": "function"
    },
    {
      "constant": false,
      "inputs": [],
      "name": "initialize",
      "outputs": [],
      "payable": false,
      "stateMutability": "nonpayable",
      "type": "function"
    },
    {
      "constant": false,
      "inputs": [],
      "name": "renounceAdmin",
      "outputs": [],
      "payable": false,
      "stateMutability": "nonpayable",
      "type": "function"
    },
    {
      "constant": true,
      "inputs": [
        {
          "name": "account",
          "type": "address"
        }
      ],
      "name": "isSuperAdmin",
      "outputs": [
        {
          "name": "",
          "type": "bool"
        }
      ],
      "payable": false,
      "stateMutability": "view",
      "type": "function"
    },
    {
      "anonymous": false,
      "inputs": [
        {
          "indexed": true,
          "name": "account",
          "type": "address"
        }
      ],
      "name": "WhitelistedAdded",
      "type": "event"
    },
    {
      "anonymous": false,
      "inputs": [
        {
          "indexed": true,
          "name": "account",
          "type": "address"
        }
      ],
      "name": "WhitelistedRemoved",
      "type": "event"
    },
    {
      "anonymous": false,
      "inputs": [
        {
          "indexed": true,
          "name": "account",
          "type": "address"
        }
      ],
      "name": "AdminAdded",
      "type": "event"
    },
    {
      "anonymous": false,
      "inputs": [
        {
          "indexed": true,
          "name": "account",
          "type": "address"
        }
      ],
      "name": "AdminRemoved",
      "type": "event"
    },
    {
      "constant": true,
      "inputs": [
        {
          "name": "account",
          "type": "address"
        }
      ],
      "name": "isWhitelisted",
      "outputs": [
        {
          "name": "",
          "type": "bool"
        }
      ],
      "payable": false,
      "stateMutability": "view",
      "type": "function"
    },
    {
      "constant": false,
      "inputs": [
        {
          "name": "account",
          "type": "address"
        }
      ],
      "name": "addWhitelisted",
      "outputs": [],
      "payable": false,
      "stateMutability": "nonpayable",
      "type": "function"
    },
    {
      "constant": false,
      "inputs": [
        {
          "name": "account",
          "type": "address"
        }
      ],
      "name": "removeWhitelisted",
      "outputs": [],
      "payable": false,
      "stateMutability": "nonpayable",
      "type": "function"
    },
    {
      "constant": false,
      "inputs": [],
      "name": "renounceWhitelisted",
      "outputs": [],
      "payable": false,
      "stateMutability": "nonpayable",
      "type": "function"
    }
  ],
  "bytecode": "0x608060405234801561001057600080fd5b50610a36806100206000396000f3fe6080604052600436106100af576000357c0100000000000000000000000000000000000000000000000000000000900463ffffffff16806310154bad146100b45780631785f53c1461010557806324d7806c14610156578063291d9549146101bf57806329575f6a146102105780633af32abf1461026757806370480275146102d05780638129fc1c146103215780638bad0c0a14610338578063d6cd94731461034f578063df7f453b14610366575b600080fd5b3480156100c057600080fd5b50610103600480360360208110156100d757600080fd5b81019080803573ffffffffffffffffffffffffffffffffffffffff1690602001909291905050506103cf565b005b34801561011157600080fd5b506101546004803603602081101561012857600080fd5b81019080803573ffffffffffffffffffffffffffffffffffffffff1690602001909291905050506103ef565b005b34801561016257600080fd5b506101a56004803603602081101561017957600080fd5b81019080803573ffffffffffffffffffffffffffffffffffffffff16906020019092919050505061040f565b604051808215151515815260200191505060405180910390f35b3480156101cb57600080fd5b5061020e600480360360208110156101e257600080fd5b81019080803573ffffffffffffffffffffffffffffffffffffffff16906020019092919050505061042c565b005b34801561021c57600080fd5b5061022561044c565b604051808273ffffffffffffffffffffffffffffffffffffffff1673ffffffffffffffffffffffffffffffffffffffff16815260200191505060405180910390f35b34801561027357600080fd5b506102b66004803603602081101561028a57600080fd5b81019080803573ffffffffffffffffffffffffffffffffffffffff169060200190929190505050610472565b604051808215151515815260200191505060405180910390f35b3480156102dc57600080fd5b5061031f600480360360208110156102f357600080fd5b81019080803573ffffffffffffffffffffffffffffffffffffffff16906020019092919050505061048f565b005b34801561032d57600080fd5b506103366104af565b005b34801561034457600080fd5b5061034d61062e565b005b34801561035b57600080fd5b50610364610639565b005b34801561037257600080fd5b506103b56004803603602081101561038957600080fd5b81019080803573ffffffffffffffffffffffffffffffffffffffff169060200190929190505050610644565b604051808215151515815260200191505060405180910390f35b6103d83361040f565b15156103e357600080fd5b6103ec8161069e565b50565b6103f833610644565b151561040357600080fd5b61040c816106f8565b50565b600061042582603361075290919063ffffffff16565b9050919050565b6104353361040f565b151561044057600080fd5b610449816107e6565b50565b603460009054906101000a900473ffffffffffffffffffffffffffffffffffffffff1681565b600061048882603561075290919063ffffffff16565b9050919050565b61049833610644565b15156104a357600080fd5b6104ac81610840565b50565b600060019054906101000a900460ff16806104ce57506104cd61089a565b5b806104e557506000809054906101000a900460ff16155b151561057f576040517f08c379a000000000000000000000000000000000000000000000000000000000815260040180806020018281038252602e8152602001807f436f6e747261637420696e7374616e63652068617320616c726561647920626581526020017f656e20696e697469616c697a656400000000000000000000000000000000000081525060400191505060405180910390fd5b60008060019054906101000a900460ff1690506001600060016101000a81548160ff02191690831515021790555060016000806101000a81548160ff0219169083151502179055506105d033610840565b33603460006101000a81548173ffffffffffffffffffffffffffffffffffffffff021916908373ffffffffffffffffffffffffffffffffffffffff16021790555080600060016101000a81548160ff02191690831515021790555050565b610637336106f8565b565b610642336107e6565b565b6000603460009054906101000a900473ffffffffffffffffffffffffffffffffffffffff1673ffffffffffffffffffffffffffffffffffffffff168273ffffffffffffffffffffffffffffffffffffffff16149050919050565b6106b28160356108ab90919063ffffffff16565b8073ffffffffffffffffffffffffffffffffffffffff167fee1504a83b6d4a361f4c1dc78ab59bfa30d6a3b6612c403e86bb01ef2984295f60405160405180910390a250565b61070c81603361095b90919063ffffffff16565b8073ffffffffffffffffffffffffffffffffffffffff167fa3b62bc36326052d97ea62d63c3d60308ed4c3ea8ac079dd8499f1e9c4f80c0f60405160405180910390a250565b60008073ffffffffffffffffffffffffffffffffffffffff168273ffffffffffffffffffffffffffffffffffffffff161415151561078f57600080fd5b8260000160008373ffffffffffffffffffffffffffffffffffffffff1673ffffffffffffffffffffffffffffffffffffffff16815260200190815260200160002060009054906101000a900460ff16905092915050565b6107fa81603561095b90919063ffffffff16565b8073ffffffffffffffffffffffffffffffffffffffff167f270d9b30cf5b0793bbfd54c9d5b94aeb49462b8148399000265144a8722da6b660405160405180910390a250565b6108548160336108ab90919063ffffffff16565b8073ffffffffffffffffffffffffffffffffffffffff167f44d6d25963f097ad14f29f06854a01f575648a1ef82f30e562ccd3889717e33960405160405180910390a250565b600080303b90506000811491505090565b600073ffffffffffffffffffffffffffffffffffffffff168173ffffffffffffffffffffffffffffffffffffffff16141515156108e757600080fd5b6108f18282610752565b1515156108fd57600080fd5b60018260000160008373ffffffffffffffffffffffffffffffffffffffff1673ffffffffffffffffffffffffffffffffffffffff16815260200190815260200160002060006101000a81548160ff0219169083151502179055505050565b600073ffffffffffffffffffffffffffffffffffffffff168173ffffffffffffffffffffffffffffffffffffffff161415151561099757600080fd5b6109a18282610752565b15156109ac57600080fd5b60008260000160008373ffffffffffffffffffffffffffffffffffffffff1673ffffffffffffffffffffffffffffffffffffffff16815260200190815260200160002060006101000a81548160ff021916908315150217905550505056fea165627a7a7230582066c2ad41cc0a76823de3536b176d1e2c0810557de264b79fb1cc0ace91c983f30029",
  "source": "pragma solidity 0.5.0;\n\nimport \"zos-lib/contracts/Initializable.sol\";\nimport \"openzeppelin-solidity/contracts/access/Roles.sol\";\nimport \"contracts/ERC20Edai.sol\";\n\ncontract AdminRole is Initializable {\n    using Roles for Roles.Role;\n\n    event AdminAdded(address indexed account);\n    event AdminRemoved(address indexed account);\n\n    Roles.Role private admins;\n    address public superAdmin;\n\n    function initialize() initializer public {\n        _addAdmin(msg.sender);\n        superAdmin = msg.sender;\n    }\n\n    modifier onlyAdmin() {\n        require(isAdmin(msg.sender));\n        _;\n    }\n\n    modifier onlySuperAdmin() {\n        require(isSuperAdmin(msg.sender));\n        _;\n    }\n\n    function isAdmin(address account) public view returns (bool) {\n        return admins.has(account);\n    }\n\n    function isSuperAdmin(address account) public view returns (bool) {\n        return account == superAdmin;\n    }\n\n    function addAdmin(address account) public onlySuperAdmin {\n        _addAdmin(account);\n    }\n\n    function removeAdmin(address account) public onlySuperAdmin {\n        _removeAdmin(account);\n    }\n\n    function renounceAdmin() public {\n        _removeAdmin(msg.sender);\n    }\n\n    function _addAdmin(address account) internal {\n        admins.add(account);\n        emit AdminAdded(account);\n    }\n\n    function _removeAdmin(address account) internal {\n        admins.remove(account);\n        emit AdminRemoved(account);\n    }\n}\n\ncontract WhitelistedRole is Initializable, AdminRole {\n    using Roles for Roles.Role;\n\n    event WhitelistedAdded(address indexed account);\n    event WhitelistedRemoved(address indexed account);\n\n    Roles.Role private _whitelisteds;\n\n    modifier onlyWhitelisted() {\n        require(isWhitelisted(msg.sender));\n        _;\n    }\n\n    function isWhitelisted(address account) public view returns (bool) {\n        return _whitelisteds.has(account);\n    }\n\n    function addWhitelisted(address account) public onlyAdmin {\n        _addWhitelisted(account);\n    }\n\n    function removeWhitelisted(address account) public onlyAdmin {\n        _removeWhitelisted(account);\n    }\n\n    function renounceWhitelisted() public {\n        _removeWhitelisted(msg.sender);\n    }\n\n    function _addWhitelisted(address account) internal {\n        _whitelisteds.add(account);\n        emit WhitelistedAdded(account);\n    }\n\n    function _removeWhitelisted(address account) internal {\n        _whitelisteds.remove(account);\n        emit WhitelistedRemoved(account);\n    }\n}\n\ncontract VendingMachine is Initializable, AdminRole, WhitelistedRole {\n    using SafeMath for uint256;\n\n    ERC20Edai public tokenContract;\n    mapping (address => uint256) public allowance;\n\n    event Deposit(address indexed depositor, uint amount);\n    event Withdraw(address indexed withdrawer, uint amount);\n\n    function initialize(address _tokenContract) initializer public {\n        tokenContract = ERC20Edai(_tokenContract);\n    }\n\n    //Fallback. Just send currency here to deposit\n    function () external payable {\n        deposit();\n    }\n\n    /**\n    * @dev Deposit currency in order to buy tokens from the ERC20Contract\n    * Will buy tokens at a 1-to-1 ratio. User will also be given an allowance to withdraw the same amount.\n    */\n    function deposit() public payable {\n        _addAllowance(msg.sender, msg.value);\n\n        tokenContract.mint(msg.sender, msg.value);\n        emit Deposit(msg.sender, msg.value);\n    }\n\n    /**\n    * @dev Admin hook to increment an account's withdraw allowance.\n    * Could be useful if they don't want to give the user unlimited withdraw by whitelisting them\n    * @param account The address to receive the increased allowance.\n    * @param amount The amount to increase the allowance\n    */\n    function addAllowance(address account, uint256 amount) public onlyAdmin {\n        _addAllowance(account, amount);\n    }\n\n    function _addAllowance(address account, uint256 amount) private {\n        allowance[account] = allowance[account].add(amount);\n    }\n\n    function withdraw(uint256 amount) public {\n        if(isWhitelisted(msg.sender)) {\n            _withdraw(amount);\n        } else {\n            require(amount <= allowance[msg.sender]);\n            allowance[msg.sender] = allowance[msg.sender].sub(amount);\n            _withdraw(amount);\n        }\n    }\n\n    function _withdraw(uint256 amount) private {\n        tokenContract.burn(msg.sender, amount);\n        msg.sender.transfer(amount);\n        emit Withdraw(msg.sender, amount);\n    }\n\n    function sweep(uint256 amount) public onlySuperAdmin {\n        msg.sender.transfer(amount);\n    }\n\n    //*****************  Product/Vendor related code *******************//\n\n    mapping (address => Vendor) public vendors;\n    mapping (address => mapping (uint256 => Product)) public products;\n\n    event UpdateVendor(address indexed vendor, bytes32 name, bool isActive, bool isAllowed, address sender);\n    event AddProduct(address indexed vendor, uint256 id, uint256 cost, bytes32 name, bool isAvailable);\n\n    struct Vendor {\n        bytes32 name;\n        bool isActive; //let's vendor indicate if they are open at the time\n        bool isAllowed; //let's admin turn them off,\n        bool exists;\n    }\n\n    struct Product {\n        uint256 id;\n        uint256 cost;\n        bytes32 name;\n        bool exists;\n        bool isAvailable;\n    }\n\n    function addProduct(uint256 id, bytes32 name, uint256 cost, bool isAvailable) public {\n        require(vendors[msg.sender].isAllowed, \"VendingMachine::addProduct - vendor is not allowed by admin\");\n        products[msg.sender][id] = Product({\n            id: id,\n            cost: cost,\n            name: name,\n            exists: true,\n            isAvailable: isAvailable\n            });\n\n        emit AddProduct(msg.sender, id, cost, name, isAvailable);\n    }\n\n    function addVendor(address _vendorAddress, bytes32 _name) public onlyAdmin {\n        require(!vendors[_vendorAddress].exists, \"This address already is a vendor.\");\n\n        vendors[_vendorAddress] = Vendor({\n            name: _name,\n            isActive: false,\n            isAllowed: true,\n            exists: true\n            });\n\n        _emitUpdateVendor(_vendorAddress);\n    }\n\n    function activateVendor(bool _isActive) public {\n        //Existing vendor check happens in _updateVendor. No need to do it here\n        _updateVendor(\n            msg.sender,\n            vendors[msg.sender].name,\n            _isActive,\n            vendors[msg.sender].isAllowed\n        );\n    }\n\n    function updateVendor(address _vendorAddress, bytes32 _name, bool _isActive, bool _isAllowed) public onlyAdmin {\n        _updateVendor(_vendorAddress, _name, _isActive, _isAllowed);\n    }\n\n    function _updateVendor(address _vendorAddress, bytes32 _name, bool _isActive, bool _isAllowed) private {\n        require(vendors[_vendorAddress].exists, \"Cannot update a non-existent vendor\");\n\n        vendors[_vendorAddress].name = _name;\n        vendors[_vendorAddress].isActive = _isActive;\n        vendors[_vendorAddress].isAllowed = _isAllowed;\n\n        _emitUpdateVendor(_vendorAddress);\n    }\n\n    function _emitUpdateVendor(address _vendorAddress) private {\n        emit UpdateVendor(\n            _vendorAddress,\n            vendors[_vendorAddress].name,\n            vendors[_vendorAddress].isActive,\n            vendors[_vendorAddress].isAllowed,\n            msg.sender\n        );\n    }\n}\n",
  "sourcePath": "/Users/alfonso/repositories/blockchain/edai/contracts/VendingMachine.sol",
  "compiler": {
    "name": "solc",
    "version": "0.5.0+commit.1d4f565a.Emscripten.clang"
  },
  "schemaVersion": "3.0.2",
  "updatedAt": "2019-02-16T01:46:24.103Z",
  "devdoc": {
    "methods": {}
  },
  "userdoc": {
    "methods": {}
  }
}